20123456789012345 20260323     ACME RECEIPTS                                                                                                                    
13020001000000100 0000000004500Gym Member          000000000000GYM         MAR2026     MONTHLY                                                                  
13010123045678900 0510000004500                    000000000000GYM         MAR2026     MONTHLY                                                                  
139901240456790      0000009000                                                                                                                                 
